:020000040800F2
:1000000008050020C10100089F180008A317000878
:100010009D180008B1040008211C00080000000021
:10002000000000000000000000000000A31800080D
:100030006505000800000000A1180008A5180008C8
:10004000DB010008DB010008DB010008DB01000820
:10005000DB010008DB010008DB010008DB01000810
:10006000DB010008DB010008DB010008DB01000800
:10007000DB010008DB010008DB010008DB010008F0
:10008000DB010008DB010008DB010008DB010008E0
:10009000DB010008DB010008DB010008DB010008D0
:1000A000DB010008DB010008DB010008DB010008C0
:1000B000DB010008DB010008DB010008DB010008B0
:1000C000DB010008DB010008DB010008DB010008A0
:1000D000DB010008DB010008DB010008151C00083B
:1000E000DB010008DB010008DB010008DB01000880
:1000F000DB010008DB010008DB010008DB01000870
:10010000DB010008DB010008DB010008DB0100085F
:10011000DB010008DB010008DB010008DB0100084F
:10012000B5040008DB010008DB010008DB01000862
:10013000DB010008DB010008DB010008DB0100082F
:10014000DB010008DB010008DB010008DB0100081F
:10015000DB010008DB010008DB010008DB0100080F
:10016000DB010008DB010008DB010008DB010008FF
:10017000DB010008DB010008DB01000800000000D3
:10018000DB010008DB010008DB010008DB010008DF
:10019000DB010008DB010008DB010008DB010008CF
:1001A000DB010008DB010008DB010008DFF80CD0F0
:1001B00000F090F800480047ED1D000808050020F9
:1001C0000648804706480047FEE7FEE7FEE7FEE7F1
:1001D000FEE7FEE7FEE7FEE7FEE7FEE7451900085B
:1001E000AD0100082DE9F05F0546002092469B46D0
:1001F00088460646814640241BE02846414647463D
:10020000224600F057F853465A46C01A914110D37F
:1002100011461846224600F03EF82D1A67EB0108F9
:100220004F4622460120002100F035F817EB000967
:100230004E41201EA4F10104DFDC484631462A4627
:100240004346BDE8F09FD2B201E000F8012B491E01
:10025000FBD270470022F6E710B513460A46044663
:100260001946FFF7F0FF204610BD30B50B4601469A
:1002700000202022012409E021FA02F59D4205D345
:1002800003FA02F5491B04FA02F52844151EA2F1EF
:100290000102F1DC30BD202A04DB203A00FA02F131
:1002A000002070479140C2F1200320FA03F3194364
:1002B00090407047202A04DB203A21FA02F0002106
:1002C000704721FA02F3D040C2F120029140084366
:1002D00019467047064C074D06E0E06840F0010300
:1002E00094E8070098471034AC42F6D3FFF762FF5A
:1002F0007C1E00089C1E000810B50146806B026C35
:1003000012F0500F05D0026CD20626D500F0E2F9AB
:1003100010BD016C41F40071016401688A6812F03B
:10032000405F17D1027EAAB9CA6A12F4700F02D0D8
:100330008A6852050ED44A6822F020024A60016C95
:1003400021F480710164016CC90403D4016C41F093
:100350000101016400F0BCF910BD806BC26CBDE806
:1003600010400846104710B5806B40210164416C75
:1003700041F00401416400F0ADF910BD10B5806B8F
:1003800000F0A7F910BD0000464910B54A6822F4F4
:1003900040324A604A6843681A434A6001684A68C2
:1003A00022F480724A6001684A68036942EA0322C3
:1003B0004A6001684A6822F040724A6001684A68EF
:1003C00083681A434A6001688A6822F400628A607E
:1003D00001688A68C3681A438A60816A6FF0706234
:1003E000D14201688A6822F070628A6001688A6876
:1003F0000CD0836A1A438A6001688A6822F04052EE
:100400008A6001688A68C36A1A4301E022F0405298
:100410008A6001688A6822F002028A6001688A683C
:10042000037E42EA43028A6090F8201000290168A6
:100430004A680FD042F400624A6001684A6822F4B8
:1004400060424A6001684A68174C436A04EB4333D0
:100450001A4301E022F400624A600168CA6A22F489
:100460007002CA620168CA6A838B104C04EB0353A2
:100470001A43CA6201688A6822F400728A600168BD
:100480008A6890F8303042EA43228A6001688A68BC
:1004900022F480628A6001688A68406942EA8020AA
:1004A000886010BD0023014000E0FFFF0000F0FF66
:1004B000FEE70000014800F02FBA000068000020AD
:1004C00001681823CAB2103AB2FBF3F2054B6FF37E
:1004D0000901032A9B5CC36500D9091D8165084693
:1004E000704700005C1E000810B5014600208B69B3
:1004F0008A6A4FF0C07453B1B3F5005F15D072B182
:10050000012A0CD0022A0AD0032A09D104E01AB128
:10051000012A06D0022A03D1C96AC90100D50120E7
:1005200010BDC96AA142FAD010BD002AF7D0012A35
:10053000F2D0022AF3D0032AF3D010BD30B50468FC
:10054000256825F480252560046863608368402B56
:10055000036803D099600068C26030BD9A6000688B
:10056000C16030BD704772B6FEE7000078B5002468
:10057000009490F83C20012A19D0012280F83C20F8
:100580000A6807230568092A13D9EE680A3A02EBBC
:10059000420293409E43EE600B788A680A3B03EB6D
:1005A00043039A400368DD682A43DA6010E00220C2
:1005B00078BD2E6902EB420293409E432E610B7878
:1005C0008A6803EB43039A4003681D692A431A6152
:1005D0004A681F23072A13D205686E6B521E02EB6E
:1005E000820293409E436E630A8893B20A79521E38
:1005F00002EB820293400268556B2B43536327E062
:1006000005680D2A12D22E6BD21F02EB8202934094
:100610009E432E630B790A88DB1F92B203EB8303A0
:100620009A4003681D6B2A431A6311E0EE6A0D3A83
:1006300002EB820293409E43EE620B790A880D3BE7
:1006400092B203EB83039A400368DD6A2A43DA62BD
:100650001B4B0568194A9D420AD10D68122D07D11E
:10066000556825F400055560556845F480055560CA
:1006700005689D421DD1134D0B68AB4201D0112B73
:1006800017D1536823F480035360536843F4000385
:1006900053600968A9420CD10B490C4A0968B1FBA7
:1006A000F2F101EB8101490000E0491E00910029AF
:1006B000FBD180F83C40002078BD000000230140C1
:1006C00000200140120000101000002040420F00E6
:1006D00070477047704770B504004FF0000503D0B5
:1006E000206C002610B107E0012070BD204600F00C
:1006F0001DF8666484F83C60206CC00610D4206C41
:1007000020F4885040F0020020642046FFF73CFEB1
:100710006664206C20F0020040F00100206400E0DC
:10072000012584F83C60284670BD000070B586B095
:10073000064614216846FFF78DFD1D493068884242
:1007400034D11C480025016841F4807101600068C3
:1007500000F48070059017481438016841F00201D8
:1007600001600068694600F00200059002200090D8
:100770000320CDE90105104800F052FA104C0F4853
:10078000C4E900050015A560C4E90350400060619C
:100790008000A0614011C4E907052046656200F0B1
:1007A0008BF908B1FFF7DFFEB463A66306B070BD36
:1007B000002001404438024000040240106402401E
:1007C00068000020F8B50E4600210446009190F81C
:1007D0003C00012807D0012084F83C002068836891
:1007E000DB0702D011E00220F8BD836843F001036B
:1007F00083603748374B0068B0FBF3F000EB4000F4
:1008000000E0401E00900028FBD120688368DB07D1
:100810005CD0236C40F20165AB4343F480732364E6
:100820004068400505D5206C20F4005040F480500D
:100830002064206CC00404D5606C20F00600606465
:1008400000E0616484F83C10A16B2448224DC86329
:10085000A16B23480864A16B2248C86421686FF02B
:10086000220008602068416841F080614160206892
:10087000816841F4807181602168134632464C31B1
:10088000A06B00F083F968681749C006206806D09D
:1008900088421BD1816811F0405F13D016E0884276
:1008A000F8D0124A904203D1D1F80423D206F1D0F5
:1008B0000F4A90420AD1D1F8041301F01F01102908
:1008C000E8D303E0816841F0804181600020F8BDF9
:1008D0001000002040420F0000230140F9020008F0
:1008E0007D0300086703000800200140002101404B
:1008F0000022014090F83510022903D08021416583
:1009000001207047052180F835100068016821F04A
:1009100001010160002070472DE9F84304464FF0C3
:100920000009CDF8009063484FF41651A56D00689A
:10093000B0FBF1F72E6894F85C10082000FA01F182
:1009400031420FD021680A6852070BD50A6822F09D
:1009500004020A6094F85C108840A860606D40F062
:100960000100606594F85C104FF0010808FA01F08E
:10097000304208D021684969090604D5A860606D35
:1009800040F00200606594F85C100420884030421A
:1009900008D021680968890704D5A860606D40F017
:1009A0000400606594F85C1010208840304218D034
:1009B00021680968090714D5A860206801684903FF
:1009C00004D50068000308D5A16C07E00168C905DB
:1009D00003D4016821F008010160216C09B12046AF
:1009E000884794F85C1020208840304231D021683C
:1009F0000968C9062DD5A86094F835000528206837
:100A0000016806D0490347D5006800031DD4616C16
:100A10001CE021F0160101602068416921F080018D
:100A20004161206C08B9A06C20B12068016821F0F8
:100A30000801016094F85C103F208840A86084F8A9
:100A4000349084F83580216D1FE0E16B09B12046B8
:100A50008847606D00282BD0606DC00714D005203A
:100A600084F835002068016821F0010101600098D8
:100A7000401C0090B84203D820680068C007F6D137
:100A800084F8349084F83580E16C002910D001B0EE
:100A90002046BDE8F04308470168C905D5D4016880
:100AA00021F01001016084F8349084F83580CCE79F
:100AB000BDE8F883100000202DE9F041044600F065
:100AC00099F906465CB1002584F83450022084F878
:100AD00035002068016821F0010101600DE001206E
:100AE000BDE8F08100F086F9801B052805D920209B
:100AF0006065032084F83500F2E720680068C007CD
:100B0000F0D12268116820480140D4E9010318435C
:100B1000D4E903363343184363691843A369184380
:100B2000E3691843236A18430843616A042903D11F
:100B3000D4E90B1319430843106020684069666AC2
:100B400020F0070130460E43012704280CD1A06A8B
:100B50000643E06A40B12046FFF7C6FC20B14020C2
:100B6000606584F83570BAE7206846612046FFF773
:100B7000A7FC94F85C203F2191408160656584F872
:100B800035700020ACE700003F8010F02DE9F04107
:100B90000446866D90F83400002501280DD0012010
:100BA00084F8340094F835700020012F07D084F8C1
:100BB000340002252846BDE8F0810220FBE7022729
:100BC00084F8357060652046FFF7B8FC94F85C1037
:100BD0003F208840B0602068016841F01601016044
:100BE000206C20B12068016841F008010160206894
:100BF000016841F001010160DCE7000070B50446C6
:100C000000F0F8F80546601C02D00448007804445F
:100C100000F0F0F8401BA042FAD370BD04000020A1
:100C20002DE9F84F00224FF0010803254FF00F0E79
:100C30000B6808FA02F42340A3426ED14E68012EDD
:100C400005D0022E03D0112E01D0122E12D18668AB
:100C50004FEA420C05FA0CF7BE43CF6807FA0CF7CF
:100C6000374387604668A6430C79C4F30014944068
:100C700034434460C668570005FA07FC8C6826EACE
:100C80000C06BC403443C4604C68022C01D0122CCA
:100C900013D1D40800EB8404A346D4F82090540761
:100CA0004FEAD46A0EFA0AF629EA06090E6906FA2C
:100CB0000AF646EA0906CBF8206004680E7924EAB1
:100CC0000C0406F00306BE40264306604C68E400B0
:100CD0006FD53B4C266846F480462660246822F097
:100CE000030604F480440094364C3444A446D4F8FB
:100CF00008489607360F0EFA06F7BC43324FB84243
:100D000001D100272EE0314FB84201D1012729E05F
:100D10002F4FB84202D1022724E04AE02D4FB842BB
:100D200001D103271EE02C4FB84201D1042719E05E
:100D30002A4FB84201D1052714E0294FB84201D10A
:100D400006270FE0274FB84201D107270AE0264FB8
:100D5000B84201D1082705E0244FB84201D1092744
:100D600000E00A27B7402743CCF80878204E3468C3
:100D70004F689C43FF0300D51C4334601C4E361D56
:100D800034684F689C43BF0300D51C433460184E41
:100D9000083634684F689C43FF0200D51C4334601A
:100DA000134E0C3634684F689C43BF0200D51C4379
:100DB0003460521C102AFFF43BAFBDE8F88F0000EE
:100DC000443802400030014000000240000402406C
:100DD00000080240000C02400010024000140240D3
:100DE00000180240001C0240002002400024024083
:100DF000003C01400148806870470000040000206A
:100E00000248816802781144816070470400002024
:100E10000B4810B5016841F400710160016841F4AC
:100E200080610160016841F480710160032000F07D
:100E30006FF8002000F006F800F024F8002010BD44
:100E4000003C024070B50D4D04464FF47A7128788D
:100E5000B1FBF0F00A490968B1FBF0F000F03AFB91
:100E600048B9102C07D200222146501E00F030F85D
:100E700000206C6070BD012070BD000004000020E7
:100E8000100000200A4808B5016841F48041016063
:100E9000006800F4804000900548001F016841F0A0
:100EA00080510160006800F08050009008BD000093
:100EB00044380240002809DB00F01F020121914064
:100EC0004009800000F1E020C0F8001170470000E8
:100ED000F0B40E4B1B680C46C3F30223C3F10705A5
:100EE000042D00D90425191D072901D2002300E093
:100EF000DB1E012606FA05F1491E214099409E405D
:100F0000761E16403143F0BC00F0A0BE0CED00E0B0
:100F1000064900F0070208684FF6FF03184040EA50
:100F20000220034A10430860704700000CED00E007
:100F30000000FA052DE9F8431748016841F0805197
:100F400001600068154F00F08050012600903E645B
:100F5000FFF750FF05464FF47A78114C05E000BFCB
:100F6000FFF748FF401B40450DD86068C003F7D528
:100F70007E64FFF73FFF0546464607E0FFF73AFF6E
:100F8000401BB04202D90320BDE8F88360688003AB
:100F9000F4D50020F8E700004038024000000E427F
:100FA000007000402DE9F0470E46050065D0DFF8DF
:100FB0001481D8F80000F7B200F00F00B04207D259
:100FC00088F80070D8F8000000F00F00B04254D14B
:100FD00028683D4C810712D5400703D5206840F4AE
:100FE000E05020602878000703D5206840F4604076
:100FF00020602068A96820F0F0000843206028786D
:10100000C0072DD0304968680839012812D002285D
:1010100013D0032811D00968890700292DDA216827
:1010200021F0030101432160FFF7E4FE814641F214
:10103000883A0EE009688903EFE709688901ECE75F
:10104000FFF7D8FEA0EB0901514502D90320BDE806
:10105000F0872068696800F00C00B0EB810FEFD1D9
:10106000D8F80010404601F00F01B14207D90770CF
:10107000006800F00F00B04201D00120E7E72878B7
:10108000400705D52068E96820F4E0500843206057
:101090002878000706D52068296920F4604040EAD6
:1010A000C100206000F038F82168084AC1F303113C
:1010B000515CC8400649086006480068FFF7C2FE58
:1010C0000020C4E7003C024008380240641E0008CB
:1010D0001000002008000020044805490068096845
:1010E000044AC1F38221515CC840704710000020BF
:1010F00008380240741E0008044805490068096861
:10110000044AC1F34231515CC840704710000020CE
:1011100008380240741E0008154810B5006810F029
:101120000C02144813D04110042A0FD0082A0ED103
:101130000F4C241F2268236802F03F025B0207D590
:101140002068C0F38810A0FB010106E0084610BD2E
:101150002168C1F38811A1FB00010023FFF742F8C9
:101160002168C1F30141491C4900B0FBF1F010BDF9
:10117000083802400024F4002DE9F84F04006ED036
:101180002078DFF83C93C007A9F104054AD009F1A3
:1011900004000168C1F38101012908D00068C0F38F
:1011A000810002280AD1D9F80000400206D528683B
:1011B000800337D560680028E1D033E06068B0F57F
:1011C000803F10D0B0F5A02F286810D020F48030D8
:1011D0002860286820F4802028606068A8B1FFF7A4
:1011E00009FE06460DE0286840F48030F4E740F43C
:1011F00080202860F7E700BFFFF7FCFD801B642814
:1012000073D828688003F7D50CE0FFF7F3FD064696
:1012100005E000BFFFF7EEFD801B6428F0D82868CA
:101220008003F7D42078DFF89C8280074FF0000A13
:101230003ED5A348001D016811F00C0F08D00068CE
:10124000C0F3810002280BD1D9F80000400207D476
:101250002868800716D5E068012800D112E02BE14C
:10126000E068B8B10120C8F80000FFF7C3FD0646EA
:1012700005E000BFFFF7BEFD801B0228C0D828682C
:101280008007F7D52868216920F0F80040EAC100FE
:1012900028600DE0C8F800A0FFF7ACFD064604E0AA
:1012A000FFF7A8FD801B02281FD828688007F7D405
:1012B0002078000722D5824E83486169703671B16B
:1012C00001210160FFF796FD074604E0FFF792FD5C
:1012D000C01B022809D830688007F7D50EE0C0F897
:1012E00000A0FFF787FD074605E082E0FFF782FDDB
:1012F000C01B02287DD830688007F7D420784007CB
:1013000068D5DFF8BCB100270BF13C0BDBF800001F
:10131000C0000BD4DBF8001041F08051CBF8001076
:10132000DBF80000012700F080500090674E306825
:10133000C00510D4306840F480703060FFF75AFD6B
:10134000009005E0FFF756FD0099401A022850D89A
:101350003068C005F6D55A4EA0686C3601280FD00B
:101360000528306810D020F001003060306820F08F
:1013700004003060A068B8B1FFF73CFD00900FE0BA
:10138000306840F00100F4E740F004003060F7E717
:10139000FFF730FD0099411A41F28830814266D84A
:1013A00030688007F4D50EE0FFF724FD009007E0D9
:1013B000FFF720FD0099411A41F28830814256D84A
:1013C00030688007F4D42FB1DBF8001021F0805191
:1013D000CBF80010A069C8B33949091D0968C1F3E9
:1013E000810102294AD00228504607D0C8F860007F
:1013F00000E03CE0FFF7FEFC04463BE04746C8F84F
:101400006000FFF7F7FC064605E000BFFFF7F2FCBF
:10141000801B02282BD828688001F7D4D4E9070163
:101420000843A16A2A4A490802EB0141626A41EA7B
:101430008211084394F82C1040EA0161C9F80010A9
:1014400001203866FFF7D6FC044606E036E000BF10
:10145000FFF7D0FC001B022809D828688001F7D5C7
:101460002CE000BFFFF7C6FC001B022802D90320B6
:10147000BDE8F88F28688001F4D41FE00128F7D078
:10148000D9F80000E26900F48001914214D1226A87
:1014900000F03F0191420FD147F6C071626A0140EE
:1014A000914209D1A26A00F44031914204D1E16A2B
:1014B00000F07060884201D00120D9E70020D7E712
:1014C0000438024000004742800E4742007000404E
:1014D0000000FFFF10B5401EB0F1807F01D3012056
:1014E00010BD4FF0E02460610F21601700F0AEFBEB
:1014F0000020A06107202061002010BD704700007F
:1015000070B5026804461068D168536910F00F0F77
:1015100052D003F0010501F490762E435FD0C2074C
:1015200005D0CA0503D5E26B42F00102E26342072F
:1015300005D5DA0703D0E26B42F00202E2638207CC
:1015400005D5DA0703D0E26B42F00402E26302073A
:1015500007D501F020022A4303D0E26B42F00802D3
:10156000E263E26B002A33D0800604D5880602D5F8
:10157000204600F00BFA20684069E16BC0F3801050
:10158000090700D428B3204600F0F2F92068416929
:1015900049061AD5416921F040014161606BA0B153
:1015A0001B490165606BFFF7A5F9002810D0606B3F
:1015B000016DBDE870400847830610D58B060ED537
:1015C0002046BDE8704000F0E1B92046FFF796FFE5
:1015D00070BD2046FFF792FF0020E06370BD030658
:1015E00006D50B0604D52046BDE8704000F0AEBA23
:1015F0004006F3D54806F1D5D168204621F04001D8
:10160000D160202184F8391000F0CAF870BD0000C4
:101610006119000870B5040004D094F83900002561
:1016200010B106E0012070BD84F83850204600F06B
:1016300023F8242084F839002068C16821F400517F
:10164000C160204600F0EEF92068016921F4904164
:1016500001612068416921F02A0141612068C16867
:1016600041F40051C160E563202084F8390084F81A
:101670003A00002070BD000010B586B00446142169
:101680006846FEF7E7FD14492068884221D11348D7
:101690000021026842F480220260006800F4802089
:1016A00005900E481038026842F00202026000689D
:1016B00000F0020005904FF4406000900220CDE958
:1016C0000101032003900720049069460448FFF7B6
:1016D000A7FA06B010BD00000048004040380240A4
:1016E0000004024070472DE9F843044690F83900A1
:1016F0001F4616460D46202850D1B5B1AEB194F81C
:10170000380001284AD0012084F838004FF0000842
:10171000C4F83C80212084F83900FFF76BFBA684D5
:101720008146E68484F8388026E00120BDE8F8830D
:10173000E08C401EE084A0684B46B0F5805F4FF01F
:1017400000024FF080012046009703D000F02FFAEE
:10175000E8B90DE000F02BFAC8B928882168C0F379
:1017600008004860206908B16D1C05E0AD1C03E06D
:10177000216815F8010B4860E08C0028D8D14B4651
:10178000002240212046009700F011FA08B1032002
:10179000CCE7202084F839000020C7E70220C5E705
:1017A0007047FEE71FB50021164800910191029194
:1017B000134A0391026001244FF480320461C0E9AE
:1017C0000121047680F820100F4AC0E90A21C46183
:1017D000C16080F830404461FEF77DFF08B1FEF73C
:1017E000C2FE0920CDE900040420029069460548A4
:1017F000FEF7BCFE002801D0FEF7B5FE1FBD0000BD
:1018000000200140200000200100000F094808B519
:10181000016841F4800101600068002200F480004A
:10182000009011463820FFF753FBBDE808403820F0
:10183000FFF740BB30380240094808B5016841F065
:1018400080010160016801F080010091016841F0B0
:1018500002010160006800F00200009008BD000075
:10186000303802400C4810B50A4901604FF4E131AC
:101870004160002181600C22C160C0E904128161D5
:10188000C161FFF7C7FE002803D0BDE81040FEF796
:101890006ABE10BD00480040C8000020FEE7FEE719
:1018A00070477047FFF7ACBA30B593B03021684647
:1018B000FEF7D0FC14210CA8FEF7CCFC1F48002535
:1018C000016841F080510160006800F08050119083
:1018D0001B48016841F4404101600068022400F4A3
:1018E0004040119001200090000401908001CDE95A
:1018F000064008AA0420B42182E813000B90684631
:10190000FFF73AFC08B172B6FEE7FFF713FB08B128
:1019100072B6FEE70CA90F2081E831004FF4A05009
:101920000F904FF48050109005210CA8FFF73AFB60
:10193000002801D072B6FEE713B030BD4038024037
:10194000007000400548016841F4700101600349DE
:101950004FF00060803908607047000088ED00E0BB
:1019600010B5806B0021C185C184FFF7C7FD10BD94
:101970000168CA6822F49072CA6001684A6922F05C
:1019800001024A61202180F83A10704710B590F8A2
:101990003A10222901D0022010BD8168B1F5805F84
:1019A00011D00169002901681FD0496801F07F0347
:1019B000816A4A1C82620B70C18D491E0904090CA0
:1019C000C18518D02BE00269816A002A026852683A
:1019D00005D0D2B20A80816A491C8162ECE7C2F369
:1019E00008020A80816A891CF7E74A68816A4B1CF1
:1019F00083620A70E0E70168CA6822F02002CA60C8
:101A00000168CA6822F48072CA6001684A6922F0DB
:101A100001024A61202180F83A10FFF763FE00209E
:101A200010BD00002DE9F041044600680169E2683C
:101A300021F44051114301612169A068E269084322
:101A40006169114308432168CA6849F20C639A43EB
:101A50000243CA6020684169A26921F440711143C0
:101A60004161E069192764253226B0F5004F354AF7
:101A7000354920684FF0000806D0884201D09042D6
:101A800036D1FFF739FB35E0884201D0904202D1D0
:101A9000FFF732FB01E0FFF71FFB61684A18A0FB6C
:101AA000070148EB0803FEF79DFB0146B0FBF5F08C
:101AB0000201B1FBF5F06FF01803584301EB800011
:101AC00006EBC000B0FBF5F000F0F80002EB4002BE
:101AD000B1FBF5F0584301EB800006EBC000B0FB12
:101AE000F5F000F00700216810448860BDE8F0813F
:101AF000FFF7F2FA61688B0F8A00A0FB0701FEF77F
:101B000071FB0146B0FBF5F06FF01802504301EB9A
:101B1000800006EB0010B0FBF5F000F0F002B1FB26
:101B2000F5F002EB0012B1FBF5F06FF0180358432B
:101B300001EB800006EB0010B0FBF5F000F00F00A9
:101B4000D1E70000001401400010014090F8391066
:101B5000212901D0022070478168B1F5805F016AB8
:101B60000BD04A1C0262026809785160C18C491E80
:101B70000904090CC1840ED017E009880268C1F37A
:101B80000801516001690029016A02D0491C016203
:101B9000ECE7891CFBE70168CA6822F08002CA6092
:101BA0000068C16841F04001C160002070472DE924
:101BB000F041984617460E460446069D1DE0681CF7
:101BC0001BD02DB1FFF716F9A0EB0800A84214D9DD
:101BD0002068C16821F4D071C1602068416921F09A
:101BE00001014161202084F8390084F83A00002086
:101BF00084F838000320BDE8F0812068006836EAE8
:101C0000000004D00020B842D9D00020F3E7012022
:101C1000F9E700000148FFF773BC0000C80000208E
:101C2000FEE700000FB4084B10B504A902AA039800
:101C300000F02CF8044602A9002000F0D1F820465C
:101C400010BC5DF814FB0000E11D00080907090E37
:101C5000002804DB00F1E02080F80014704700F059
:101C60000F0000F1E02080F8141D704702E008C862
:101C7000121F08C1002AFAD170477047002001E006
:101C800001C1121F002AFBD1704700002DE9FF4F50
:101C900089B09B460446002506E025280BD05A460D
:101CA0000B999047641C6D1C20780028F5D10DB06D
:101CB0002846BDE8F08F0027B8460122474900E0DA
:101CC000074314F8013F203B02FA03F00842F7D122
:101CD00020782E2819D114F8010F47F004072A287C
:101CE0000ED06FF02F022078A0F1300109290CD816
:101CF00008EB880102EB410100EB0108641CF2E7EC
:101D00000A98641C50F8048B0A9020780028CED0E2
:101D1000642808D0692806D075281ED05A460B9929
:101D200090476D1C58E00A994FF00A0901C90A91C1
:101D3000002802DA40422D2102E0390504D52B218A
:101D40008DF82010012103E0F90704D02021F7E7E6
:101D50008A4608AE0DE00021FAE70A994FF00A0919
:101D600001C90A91F7E74946FEF77FFA303106F8D4
:101D7000011D0028F7D1ADEB060000F1200978071E
:101D800001D44FF00108C84502DDA8EB090000E0CE
:101D900000208046002706E008A85A46C05D0B993F
:101DA00090476D1C7F1C5745F6DB04E030205A46F7
:101DB0000B9990476D1CB8F10001A8F10108F5DC02
:101DC00005E016F8010B5A460B9990476D1CB9F1C6
:101DD0000001A9F10109F4DC641C65E70928010090
:101DE0000A68531C0B60107070470000FFF710F872
:101DF000FFF75AFDFFF720FDFFF708FDFFF7D2FCC4
:101E0000FFF730FD002211462720FFF761F8272059
:101E1000FFF750F801220B490B48FEF7D3FC094DA0
:101E20004FF47A7409A10B482A68FFF7FBFE0A23D6
:101E30001A4608490848FFF756FC2046FEF7DEFE22
:101E4000F0E70000000000202000002025640D0ABB
:101E50000000000014000020C8000020000610163A
:101E6000000610160000000000000000010203043C
:101E70000607080900000000010203049C1E000878
:101E800000000020140000006C1C0008B01E0008B8
:101E900014000020F40400007C1C00080000000076
:101EA0000100000010000000000000000024F40009
:04000005080001AD41
:00000001FF
