:020000040800F2
:1000000058040020C10100081F0F0008510E00080D
:100010001D0F0008CD020008B31200080000000008
:10002000000000000000000000000000230F000896
:10003000CF02000800000000210F0008250F000873
:10004000DB010008DB010008DB010008DB01000820
:10005000DB010008DB010008DB010008DB01000810
:10006000DB010008DB010008DB010008DB01000800
:10007000DB010008DB010008DB010008DB010008F0
:10008000DB010008DB010008DB010008DB010008E0
:10009000DB010008DB010008DB010008DB010008D0
:1000A000DB010008DB010008DB010008DB010008C0
:1000B000DB010008DB010008DB010008DB010008B0
:1000C000DB010008DB010008DB010008DB010008A0
:1000D000DB010008DB010008DB010008DB01000890
:1000E000DB010008DB010008DB010008DB01000880
:1000F000DB010008DB010008DB010008DB01000870
:10010000DB010008DB010008DB010008DB0100085F
:10011000DB010008DB010008DB010008DB0100084F
:10012000DB010008DB010008DB010008DB0100083F
:10013000DB010008DB010008DB010008DB0100082F
:10014000DB010008DB010008DB010008DB0100081F
:10015000DB010008DB010008DB010008DB0100080F
:10016000DB010008DB010008DB010008DB010008FF
:10017000DB010008DB010008DB01000800000000D3
:10018000DB010008DB010008DB010008DB010008DF
:10019000DB010008DB010008DB010008DB010008CF
:1001A000DB010008DB010008DB010008DFF80CD0F0
:1001B00000F07AF800480047F512000858040020C3
:1001C0000648804706480047FEE7FEE7FEE7FEE7F1
:1001D000FEE7FEE7FEE7FEE7FEE7FEE7C50F0008E5
:1001E000AD0100082DE9F05F0546002092469B46D0
:1001F00088460646814640241BE02846414647463D
:10020000224600F041F853465A46C01A914110D395
:1002100011461846224600F028F82D1A67EB01080F
:100220004F4622460120002100F01FF817EB00097D
:100230004E41201EA4F10104DFDC484631462A4627
:100240004346BDE8F09FD2B201E000F8012B491E01
:10025000FBD270470022F6E710B513460A46044663
:100260001946FFF7F0FF204610BD202A04DB203A94
:1002700000FA02F1002070479140C2F1200320FAF9
:1002800003F3194390407047202A04DB203A21FAF7
:1002900002F00021704721FA02F3D040C2F120029F
:1002A0009140084319467047064C074D06E0E06848
:1002B00040F0010394E8070098471034AC42F6D3AD
:1002C000FFF778FF5C1300087C130008FEE7704717
:1002D00072B6FEE770B5044600F0F8F80546601CFB
:1002E00002D004480078044400F0F0F8401BA0421B
:1002F000FAD370BD040000202DE9F84F00224FF022
:10030000010803254FF00F0E0B6808FA02F4234092
:10031000A3426ED14E68012E05D0022E03D0112EBD
:1003200001D0122E12D186684FEA420C05FA0CF762
:10033000BE43CF6807FA0CF7374387604668A64389
:100340000C79C4F30014944034434460C6685700E9
:1003500005FA07FC8C6826EA0C06BC403443C460EE
:100360004C68022C01D0122C13D1D40800EB840469
:10037000A346D4F8209054074FEAD46A0EFA0AF63E
:1003800029EA06090E6906FA0AF646EA0906CBF8D2
:10039000206004680E7924EA0C0406F00306BE40CF
:1003A000264306604C68E4006FD53B4C266846F453
:1003B00080462660246822F0030604F480440094FA
:1003C000364C3444A446D4F808489607360F0EFA43
:1003D00006F7BC43324FB84201D100272EE0314F1F
:1003E000B84201D1012729E02F4FB84202D102279C
:1003F00024E04AE02D4FB84201D103271EE02C4FE4
:10040000B84201D1042719E02A4FB84201D105278B
:1004100014E0294FB84201D106270FE0274FB84218
:1004200001D107270AE0264FB84201D1082705E08D
:10043000244FB84201D1092700E00A27B7402743DB
:10044000CCF80878204E34684F689C43FF0300D5F1
:100450001C4334601C4E361D34684F689C43BF03F8
:1004600000D51C433460184E083634684F689C43EE
:10047000FF0200D51C433460134E0C3634684F68BD
:100480009C43BF0200D51C433460521C102AFFF469
:100490003BAFBDE8F88F0000443802400030014017
:1004A000000002400004024000080240000C02402C
:1004B000001002400014024000180240001C0240DC
:1004C0000020024000240240003C014001488068B6
:1004D000704700000400002002488168027811443F
:1004E00081607047040000200B4810B5016841F49A
:1004F00000710160016841F480610160016841F4AC
:1005000080710160032000F061F8002000F006F81F
:1005100000F024F8002010BD003C024070B50D4DE5
:1005200004464FF47A712878B1FBF0F00A49096863
:10053000B1FBF0F000F00CFB48B9102C07D2002200
:100540002146501E00F022F800206C6070BD012092
:1005500070BD000004000020100000200A4808B50B
:10056000016841F480410160006800F4804000901F
:100570000548001F016841F080510160006800F0EB
:100580008050009008BD000044380240F0B40E4B8B
:100590001B680C46C3F30223C3F10705042D00D9E1
:1005A0000425191D072901D2002300E0DB1E0126C6
:1005B00006FA05F1491E214099409E40761E1640DC
:1005C0003143F0BC00F076BE0CED00E0064900F0CF
:1005D000070208684FF6FF03184040EA0220034A6A
:1005E00010430860704700000CED00E00000FA05C1
:1005F0002DE9F8431748016841F080510160006817
:10060000154F00F08050012600903E64FFF75EFF1A
:1006100005464FF47A78114C05E000BFFFF756FF0E
:10062000401B40450DD86068C003F7D57E64FFF7D6
:100630004DFF0546464607E0FFF748FF401BB04226
:1006400002D90320BDE8F88360688003F4D5002058
:10065000F8E700004038024000000E420070004001
:100660002DE9F0470E46050065D0DFF81481D8F873
:100670000000F7B200F00F00B04207D288F8007017
:10068000D8F8000000F00F00B04254D128683D4C6B
:10069000810712D5400703D5206840F4E050206060
:1006A0002878000703D5206840F460402060206867
:1006B000A96820F0F000084320602878C0072DD0FA
:1006C000304968680839012812D0022813D003285D
:1006D00011D00968890700292DDA216821F003016A
:1006E00001432160FFF7F2FE814641F2883A0EE0B5
:1006F00009688903EFE709688901ECE7FFF7E6FE7F
:10070000A0EB0901514502D90320BDE8F08720681C
:10071000696800F00C00B0EB810FEFD1D8F8001041
:10072000404601F00F01B14207D90770006800F0A0
:100730000F00B04201D00120E7E72878400705D537
:100740002068E96820F4E05008432060287800071A
:1007500006D52068296920F4604040EAC100206085
:1007600000F018F82168084AC1F30311515CC84031
:100770000649086006480068FFF7D0FE0020C4E77D
:10078000003C0240083802404C13000810000020D2
:1007900008000020154810B5006810F00C0214483D
:1007A00013D04110042A0FD0082A0ED10F4C241F59
:1007B0002268236802F03F025B0207D52068C0F37D
:1007C0008810A0FB010106E0084610BD2168C1F3B6
:1007D0008811A1FB00010023FFF704FD2168C1F38C
:1007E0000141491C4900B0FBF1F010BD083802403E
:1007F0000024F4002DE9F84F04006ED02078DFF8D3
:100800003C93C007A9F104054AD009F1040001682E
:10081000C1F38101012908D00068C0F381000228DA
:100820000AD1D9F80000400206D52868800337D5E0
:1008300060680028E1D033E06068B0F5803F10D0F8
:10084000B0F5A02F286810D020F4803028602868E8
:1008500020F4802028606068A8B1FFF737FE0646C4
:100860000DE0286840F48030F4E740F480202860F0
:10087000F7E700BFFFF72AFE801B642873D82868BB
:100880008003F7D50CE0FFF721FE064605E000BF28
:10089000FFF71CFE801B6428F0D828688003F7D47B
:1008A0002078DFF89C8280074FF0000A3ED5A348ED
:1008B000001D016811F00C0F08D00068C0F3810022
:1008C00002280BD1D9F80000400207D4286880071D
:1008D00016D5E068012800D112E02BE1E068B8B13C
:1008E0000120C8F80000FFF7F1FD064605E000BF53
:1008F000FFF7ECFD801B0228C0D828688007F7D5D9
:100900002868216920F0F80040EAC10028600DE065
:10091000C8F800A0FFF7DAFD064604E0FFF7D6FDB1
:10092000801B02281FD828688007F7D4207800078A
:1009300022D5824E83486169703671B10121016010
:10094000FFF7C4FD074604E0FFF7C0FDC01B022807
:1009500009D830688007F7D50EE0C0F800A0FFF78F
:10096000B5FD074605E082E0FFF7B0FDC01B022899
:100970007DD830688007F7D42078400768D5DFF845
:10098000BCB100270BF13C0BDBF80000C0000BD41E
:10099000DBF8001041F08051CBF80010DBF80000CC
:1009A000012700F080500090674E3068C00510D4D9
:1009B000306840F480703060FFF788FD009005E0FB
:1009C000FFF784FD0099401A022850D83068C0050E
:1009D000F6D55A4EA0686C3601280FD0052830682D
:1009E00010D020F001003060306820F0040030604A
:1009F000A068B8B1FFF76AFD00900FE0306840F0E2
:100A00000100F4E740F004003060F7E7FFF75EFD17
:100A10000099411A41F28830814266D830688007D7
:100A2000F4D50EE0FFF752FD009007E0FFF74EFD12
:100A30000099411A41F28830814256D830688007C7
:100A4000F4D42FB1DBF8001021F08051CBF8001066
:100A5000A069C8B33949091D0968C1F38101022998
:100A60004AD00228504607D0C8F8600000E03CE0B9
:100A7000FFF72CFD04463BE04746C8F86000FFF74F
:100A800025FD064605E000BFFFF720FD801B02287C
:100A90002BD828688001F7D4D4E907010843A16A5C
:100AA0002A4A490802EB0141626A41EA821108437D
:100AB00094F82C1040EA0161C9F800100120386652
:100AC000FFF704FD044606E036E000BFFFF7FEFC3A
:100AD000001B022809D828688001F7D52CE000BF48
:100AE000FFF7F4FC001B022802D90320BDE8F88FB1
:100AF00028688001F4D41FE00128F7D0D9F800005D
:100B0000E26900F48001914214D1226A00F03F01B1
:100B100091420FD147F6C071626A0140914209D1FA
:100B2000A26A00F44031914204D1E16A00F07060A1
:100B3000884201D00120D9E70020D7E704380240DD
:100B400000004742800E4742007000400000FFFF57
:100B500010B5401EB0F1807F01D3012010BD4FF0D1
:100B6000E02460610F21601700F0A4FB0020A06169
:100B700007202061002010BD10B5040003D094F8B8
:100B80003D0010B107E0012010BD002084F83C00BA
:100B9000204600F00DF8022084F83D00211D206859
:100BA00000F01EFA012084F83D00002010BD000076
:100BB00008B500680649884208D10648016841F432
:100BC00080310160006800F48030009008BD0000B2
:100BD000004001404438024070B5044690F83C00A3
:100BE000012817D0012584F83C50022084F83D00EC
:100BF0002068826822F0770222F47F4282600868CF
:100C0000502830D00DDC20284DD005DC98B31028BA
:100C10003BD148E0022070BD302844D0402834D178
:100C200039E0602828D0702806D0B0F5805F2CD03D
:100C3000B0F5005F29D10AE0CB68D1E90121206835
:100C400000F03FFA2068816841F0770109E0CB6845
:100C5000D1E90121206800F034FA2068816841F46C
:100C60008041816011E0CA684968206800F0FEFA9E
:100C70005021206807E016E0CA684968206800F043
:100C800006FB6021206800F026FA84F83D50002021
:100C900084F83C0070BDCA684968206800F0E6FA34
:100CA00040212068EFE7226801461046EBE700008C
:100CB00010B586B0044614216846FFF7CBFA0E49FA
:100CC0002068884215D10D480021026842F01002C8
:100CD0000260006800F01000059060200090022083
:100CE000CDE901010320CDE9031069460448FFF76F
:100CF00003FB06B010BD0000004001403038024048
:100D00000010024070B5044690F83C000D460128E2
:100D10000DD0012684F83C60022084F83D0042B1E9
:100D2000042A18D0082A2AD00C2A4DD139E00220F2
:100D300070BD206800F0D8F92068816941F0080191
:100D400081612068816921F00401816120688169E5
:100D50002A69114311E0206800F0F6F920688169E2
:100D600041F4006181612068816921F480618161C1
:100D7000206881692A6941EA0221816124E02068B2
:100D800000F018FA2068C16941F00801C1612068CB
:100D9000C16921F00401C1612068C1692A69114358
:100DA00011E0206800F03AFA2068C16941F400615E
:100DB000C1612068C16921F48061C1612068C16995
:100DC0002A6941EA0221C16184F83D60002084F86B
:100DD0003C0070BD10B5040003D094F83D0010B184
:100DE00007E0012010BD002084F83C00204600F000
:100DF0000CF8022084F83D00211D206800F0F0F876
:100E0000012084F83D00002010BD704710B5044655
:100E10000068012200F048F90B492068884202D09E
:100E20000A49884203D1416C41F400414164206881
:100E3000816801F00701062903D0016841F0010132
:100E40000160002010BD00000000014000040140CE
:100E5000FEE70000094808B5016841F01001016093
:100E6000016801F010010091016841F0800101600A
:100E7000006800F08000009008BD0000303802409B
:100E800010B58CB000240794089409941C2168467E
:100E90000A94FFF7DFF920481E4901602721C0E9C5
:100EA00001144AF6C771C0E903148461FFF764FEB8
:100EB00008B1FFF70DFA4FF48050079007A91648C4
:100EC000FFF78AFE08B1FFF703FA1348FFF782FF26
:100ED00008B1FFF7FDF96020009044F61F60CDE9EE
:100EE0000104002269460C480494FFF70BFF08B187
:100EF000FFF7EEF941F28730019004226946064877
:100F0000FFF700FF08B1FFF7E3F90348FFF7D0FE52
:100F10000CB010BD0040014014000020FEE7FEE7C9
:100F200070477047FFF7D8BA30B593B030216846A4
:100F3000FFF790F914210CA8FFF78CF91F48002542
:100F4000016841F080510160006800F0805011900C
:100F50001B48016841F4404101600068022400F42C
:100F60004040119001200090000401908001CDE9E3
:100F7000064008AA0420B42182E813000B906846BA
:100F8000FFF738FC08B172B6FEE7FFF731FB08B196
:100F900072B6FEE70CA90F2081E831004FF4A05093
:100FA0000F904FF48050109005210CA8FFF758FBCC
:100FB000002801D072B6FEE713B030BD40380240C1
:100FC000007000400548016841F470010160034968
:100FD0004FF00060803908607047000088ED00E045
:100FE000F0B50268254C264D264E274F274B4FF073
:100FF000804CA04209D0604507D0A84205D0B0423D
:1010000003D0B84201D0984204D122F0700E4A6851
:1010100042EA0E02A0421BD0604519D0A84217D068
:10102000B04215D0B84213D0984211D0184DA84202
:101030000ED0184DA8420BD0174DA84208D0174D1E
:10104000A84205D0164DA84202D0164DA84203D1A1
:1010500022F44075CA682A434D6922F080022A436F
:1010600002608A68C2620A688262A04201D0984225
:1010700001D10969016301214161F0BD0000014016
:101080000004004000080040000C00400004014043
:101090000040014000440140004801400018004069
:1010A000001C00400020004010B501F01F0301218A
:1010B000046A99408C430462016A9A4011430162B8
:1010C00010BD10B5846842EA032224F47F440A4329
:1010D0002243826010BD826822F070020A4342F00F
:1010E0000701816070470000F0B5026A22F001023A
:1010F0000262036A42688469124E24F073050C6828
:101100002C4323F002058B682B430D4DA84201D0E0
:10111000B04205D123F00807CB683B4323F004031A
:10112000A84201D0B04205D14D6922F44072154366
:101130008A692A4342608461496841630362F0BD61
:101140000000014000040140F0B5026A22F01002E4
:101150000262026A436884690D6824F4E64444EA42
:1011600005248D6822F0200242EA05120F4D104E30
:10117000A84201D0B04206D1CF6822F0800242EAF4
:10118000071222F04002A84201D0B04207D14D69B7
:1011900023F4406343EA85038D6943EA8503436092
:1011A0008461496881630262F0BD00000000014073
:1011B00000040140F0B5026A22F480720262026A01
:1011C0004368C46922F4007224F073050C68124E5F
:1011D0002C438D6842EA05220E4DA84201D0B04250
:1011E00006D1CF6822F4006242EA072222F480622C
:1011F000A84201D0B04207D14D6923F4405343EADD
:1012000005138D6943EA05134360C4614968C163EE
:101210000262F0BD000001400004014030B5026AE6
:1012200022F480520262046A4268C3690D6823F4A2
:10123000E64343EA05238D6824F4005444EA053468
:10124000084DA84202D0084DA84204D14D6922F4AD
:10125000804242EA85124260C361496801640462C7
:1012600030BD0000000001400004014010B5036AD9
:10127000046A24F001040462846924F0F00444EA5E
:10128000021423F00A020A438461026210BD10B501
:10129000036A23F0100303628369046A23F4704332
:1012A00043EA023224F0A00343EA011182610162A1
:1012B00010BDFEE70907090E002804DB00F1E0205D
:1012C00080F80014704700F00F0000F1E02080F873
:1012D000141D704702E008C8121F08C1002AFAD185
:1012E00070477047002001E001C1121F002AFBD1A6
:1012F00070470000FFF7F8F8FFF716FEFFF7AAFDAA
:10130000FFF7BEFD00210E48FFF780FD04210C48C9
:10131000FFF77CFD0B4C0C4D002626800BE0A863EC
:10132000E96A814200D226800A20FEF7D3FF208896
:1013300000F5FA702080E96A20888142EDD9EEE755
:1013400014000020000000200040014000000000C8
:101350000000000001020304060708097C130008CE
:101360000000002014000000D412000890130008B0
:101370001400002044040000E412000800000000F3
:101380000100000010000000000000000024F40034
:04000005080001AD41
:00000001FF
