:020000040800F2
:10000000684D0020810200083F0D0008790C0008AF
:100010003D0D0008B1030008490E00080000000073
:10002000000000000000000000000000C101000806
:10003000B3030008000000001D020008790D00084D
:100040009B0200089B0200089B0200089B0200081C
:100050009B0200089B0200089B0200089B0200080C
:100060009B0200089B0200089B0200089B020008FC
:100070009B0200089B0200089B0200089B020008EC
:100080009B0200089B0200089B0200089B020008DC
:100090009B0200089B0200089B0200089B020008CC
:1000A0009B0200089B0200089B0200089B020008BC
:1000B0009B0200089B0200089B0200089B020008AC
:1000C0009B0200089B0200089B0200089B0200089C
:1000D0009B0200089B0200089B0200089B0200088C
:1000E0009B0200089B0200089B0200089B0200087C
:1000F0009B0200089B0200089B0200089B0200086C
:100100009B0200089B0200089B0200089B0200085B
:100110009B0200089B0200089B0200089B0200084B
:100120009B0200089B0200089B0200089B0200083B
:100130009B0200089B0200089B0200089B0200082B
:100140009B0200089B0200089B0200089B0200081B
:100150009B0200089B0200089B0200089B0200080B
:100160009B0200089B0200089B0200089B020008FB
:100170009B0200089B0200089B0200080000000090
:100180009B0200089B0200089B0200089B020008DB
:100190009B0200089B0200089B0200089B020008CB
:1001A0009B0200089B0200089B020008DFF80CD0AD
:1001B00000F0ECF800480047890E0008684D002068
:1001C0002C4B19680868B0E8F04F80F30988BFF33A
:1001D0006F8F4FF0000080F311887047000000001F
:1001E00008480068006880F308884FF0000080F33A
:1001F000148862B661B6BFF34F8FBFF36F8F00DF15
:1002000000BF00BF08ED00E0DFF80C00016841F41A
:1002100070010160704700BF88ED00E0EFF30980D6
:10022000BFF36F8F134B1A681EF0100F08BF20ED3D
:10023000108A20E9F04F106009B44FF0500080F3AD
:100240001188BFF34F8FBFF36F8F01F0BFFC4FF0EA
:10025000000080F3118809BC19680868B0E8F04F05
:100260001EF0100F08BFB0EC108A80F30988BFF3AE
:100270006F8F704718000020EFF305807047000073
:100280000648804706480047FEE7FEE7FEE7FEE730
:10029000FEE7FEE7FEE7FEE7FEE7FEE72D0E0008BD
:1002A000AD0100082DE9F05F0546002092469B460F
:1002B00088460646814640241BE02846414647467C
:1002C000224600F053F853465A46C01A914110D3C3
:1002D00011461846224600F03AF82D1A67EB01083D
:1002E0004F4622460120002100F031F817EB0009AB
:1002F0004E41201EA4F10104DFDC484631462A4667
:100300004346BDE8F09F40EA01039B0703D009E0A4
:1003100008C9121F08C0042AFAD203E011F8013BF1
:1003200000F8013B521EF9D27047D2B201E000F84A
:10033000012B491EFBD270470022F6E710B5134689
:100340000A4604461946FFF7F0FF204610BD202A52
:1003500004DB203A00FA02F1002070479140C2F11C
:10036000200320FA03F3194390407047202A04DB4E
:10037000203A21FA02F00021704721FA02F3D0401E
:10038000C2F120029140084319467047064C074DC0
:1003900006E0E06840F0010394E807009847103455
:1003A000AC42F6D3FFF706FF94260008B4260008F7
:1003B000FEE7704770B5044600F004F90546601C7E
:1003C00002D004480078044400F0FCF8401BA0422E
:1003D000FAD370BD080000202DE9F84F00224FF03D
:1003E000010803254FF00F0E0B6808FA02F42340B2
:1003F000A3426ED14E68012E05D0022E03D0112EDD
:1004000001D0122E12D186684FEA420C05FA0CF781
:10041000BE43CF6807FA0CF7374387604668A643A8
:100420000C79C4F30014944034434460C668570008
:1004300005FA07FC8C6826EA0C06BC403443C4600D
:100440004C68022C01D0122C13D1D40800EB840488
:10045000A346D4F8209054074FEAD46A0EFA0AF65D
:1004600029EA06090E6906FA0AF646EA0906CBF8F1
:10047000206004680E7924EA0C0406F00306BE40EE
:10048000264306604C68E4006FD53B4C266846F472
:1004900080462660246822F0030604F48044009419
:1004A000364C3444A446D4F808489607360F0EFA62
:1004B00006F7BC43324FB84201D100272EE0314F3E
:1004C000B84201D1012729E02F4FB84202D10227BB
:1004D00024E04AE02D4FB84201D103271EE02C4F03
:1004E000B84201D1042719E02A4FB84201D10527AB
:1004F00014E0294FB84201D106270FE0274FB84238
:1005000001D107270AE0264FB84201D1082705E0AC
:10051000244FB84201D1092700E00A27B7402743FA
:10052000CCF80878204E34684F689C43FF0300D510
:100530001C4334601C4E361D34684F689C43BF0317
:1005400000D51C433460184E083634684F689C430D
:10055000FF0200D51C433460134E0C3634684F68DC
:100560009C43BF0200D51C433460521C102AFFF488
:100570003BAFBDE8F88F0000443802400030014036
:10058000000002400004024000080240000C02404B
:10059000001002400014024000180240001C0240FB
:1005A0000020024000240240003C0140426931EA40
:1005B000020200D10904816170470AB1816170476C
:1005C0000904FBE70148806870470000080000202C
:1005D0000248816802781144816070470800002059
:1005E0000B4810B5016841F400710160016841F4E5
:1005F00080610160016841F480710160032000F0B6
:1006000065F80F2000F006F800F024F8002010BD77
:10061000003C024070B50D4D04464FF47A712878C5
:10062000B1FBF0F00A490968B1FBF0F000F010FBF3
:1006300048B9102C07D200222146501E00F026F89F
:1006400000206C6070BD012070BD0000080000201B
:10065000140000200C4882B0016841F48041016020
:10066000006800F4804000900748001F016841F0D6
:10067000805101600068002200F0805000900F213E
:10068000901E02B000F002B844380240F0B40E4BA5
:100690001B680C46C3F30223C3F10705042D00D9E0
:1006A0000425191D072901D2002300E0DB1E0126C5
:1006B00006FA05F1491E214099409E40761E1640DB
:1006C0003143F0BC00F0C1BB0CED00E0064900F086
:1006D000070208684FF6FF03184040EA0220034A69
:1006E00010430860704700000CED00E00000FA05C0
:1006F0002DE9F8431748016841F080510160006816
:10070000154F00F08050012600903E64FFF75AFF1D
:1007100005464FF47A78114C05E000BFFFF752FF11
:10072000401B40450DD86068C003F7D57E64FFF7D5
:1007300049FF0546464607E0FFF744FF401BB0422D
:1007400002D90320BDE8F88360688003F4D5002057
:10075000F8E700004038024000000E420070004000
:100760002DE9F0470E46050065D0DFF81481D8F872
:100770000000F7B200F00F00B04207D288F8007016
:10078000D8F8000000F00F00B04254D128683D4C6A
:10079000810712D5400703D5206840F4E05020605F
:1007A0002878000703D5206840F460402060206866
:1007B000A96820F0F000084320602878C0072DD0F9
:1007C000304968680839012812D0022813D003285C
:1007D00011D00968890700292DDA216821F0030169
:1007E00001432160FFF7EEFE814641F2883A0EE0B8
:1007F00009688903EFE709688901ECE7FFF7E2FE82
:10080000A0EB0901514502D90320BDE8F08720681B
:10081000696800F00C00B0EB810FEFD1D8F8001040
:10082000404601F00F01B14207D90770006800F09F
:100830000F00B04201D00120E7E72878400705D536
:100840002068E96820F4E050084320602878000719
:1008500006D52068296920F4604040EAC100206084
:1008600000F018F82168084AC1F30311515CC84030
:100870000649086006480068FFF7CCFE0020C4E780
:10088000003C0240083802406C260008140000209A
:100890000C000020154810B5006810F00C02144838
:1008A00013D04110042A0FD0082A0ED10F4C241F58
:1008B0002268236802F03F025B0207D52068C0F37C
:1008C0008810A0FB010106E0084610BD2168C1F3B5
:1008D0008811A1FB00010023FFF7E4FC2168C1F3AC
:1008E0000141491C4900B0FBF1F010BD083802403D
:1008F0000024F4002DE9F84F04006ED02078DFF8D2
:100900003C93C007A9F104054AD009F1040001682D
:10091000C1F38101012908D00068C0F381000228D9
:100920000AD1D9F80000400206D52868800337D5DF
:1009300060680028E1D033E06068B0F5803F10D0F7
:10094000B0F5A02F286810D020F4803028602868E7
:1009500020F4802028606068A8B1FFF733FE0646C7
:100960000DE0286840F48030F4E740F480202860EF
:10097000F7E700BFFFF726FE801B642873D82868BE
:100980008003F7D50CE0FFF71DFE064605E000BF2B
:10099000FFF718FE801B6428F0D828688003F7D47E
:1009A0002078DFF89C8280074FF0000A3ED5A348EC
:1009B000001D016811F00C0F08D00068C0F3810021
:1009C00002280BD1D9F80000400207D4286880071C
:1009D00016D5E068012800D112E02BE1E068B8B13B
:1009E0000120C8F80000FFF7EDFD064605E000BF56
:1009F000FFF7E8FD801B0228C0D828688007F7D5DC
:100A00002868216920F0F80040EAC10028600DE064
:100A1000C8F800A0FFF7D6FD064604E0FFF7D2FDB8
:100A2000801B02281FD828688007F7D42078000789
:100A300022D5824E83486169703671B1012101600F
:100A4000FFF7C0FD074604E0FFF7BCFDC01B02280E
:100A500009D830688007F7D50EE0C0F800A0FFF78E
:100A6000B1FD074605E082E0FFF7ACFDC01B0228A0
:100A70007DD830688007F7D42078400768D5DFF844
:100A8000BCB100270BF13C0BDBF80000C0000BD41D
:100A9000DBF8001041F08051CBF80010DBF80000CB
:100AA000012700F080500090674E3068C00510D4D8
:100AB000306840F480703060FFF784FD009005E0FE
:100AC000FFF780FD0099401A022850D83068C00511
:100AD000F6D55A4EA0686C3601280FD0052830682C
:100AE00010D020F001003060306820F00400306049
:100AF000A068B8B1FFF766FD00900FE0306840F0E5
:100B00000100F4E740F004003060F7E7FFF75AFD1A
:100B10000099411A41F28830814266D830688007D6
:100B2000F4D50EE0FFF74EFD009007E0FFF74AFD19
:100B30000099411A41F28830814256D830688007C6
:100B4000F4D42FB1DBF8001021F08051CBF8001065
:100B5000A069C8B33949091D0968C1F38101022997
:100B60004AD00228504607D0C8F8600000E03CE0B8
:100B7000FFF728FD04463BE04746C8F86000FFF752
:100B800021FD064605E000BFFFF71CFD801B022883
:100B90002BD828688001F7D4D4E907010843A16A5B
:100BA0002A4A490802EB0141626A41EA821108437C
:100BB00094F82C1040EA0161C9F800100120386651
:100BC000FFF700FD044606E036E000BFFFF7FAFC41
:100BD000001B022809D828688001F7D52CE000BF47
:100BE000FFF7F0FC001B022802D90320BDE8F88FB4
:100BF00028688001F4D41FE00128F7D0D9F800005C
:100C0000E26900F48001914214D1226A00F03F01B0
:100C100091420FD147F6C071626A0140914209D1F9
:100C2000A26A00F44031914204D1E16A00F07060A0
:100C3000884201D00120D9E70020D7E704380240DC
:100C400000004742800E4742007000400000FFFF56
:100C500010B5401EB0F1807F01D3012010BD4FF0D0
:100C6000E02460610F21601700F0EFF80020A06120
:100C700007202061002010BDFEE7000010B5074AE4
:100C80000021074800F046F9064C044A0021206084
:100C90002432054800F03EF9606010BD24260008AB
:100CA000410D0008000000205D0D0008F0B587B080
:100CB00014216846FFF740FB1D480024016841F0FD
:100CC00010010160016801F010010591016841F017
:100CD00080010160016801F080010591016841F027
:100CE000080101600068134E00F008000590002222
:100CF00060213046FFF761FC0F4F00223E2138464D
:100D0000FFF75BFC602000900125CDE901546946A6
:100D100030460394FFF760FB3E200090CDE901547C
:100D2000694638460394FFF757FB07B0F0BD000053
:100D30003038024000100240000C0240FEE7FEE79F
:100D4000054C4FF47A7540212046FFF72FFC2846CA
:100D5000FFF730FBF7E7000000100240054C4FF4AE
:100D6000FA7520212046FFF721FC2846FFF722FBD9
:100D7000F7E700000010024010B5FFF729FC01F072
:100D80009BFA012803D0BDE8104000F0CBBF10BD96
:100D900030B593B030216846FFF7CEFA14210CA885
:100DA000FFF7CAFA1F480025016841F08051016031
:100DB000006800F0805011901B48016841F44041E8
:100DC00001600068022400F440401190012000906E
:100DD000000401908001CDE9064008AA0420B42156
:100DE00082E813000B906846FFF784FD08B172B6E5
:100DF000FEE7FFF77DFC08B172B6FEE70CA90F20F5
:100E000081E831004FF4A0500F904FF480501090C3
:100E100005210CA8FFF7A4FC002801D072B6FEE75C
:100E200013B030BD403802400070004005480168F2
:100E300041F47001016003494FF00060803908609F
:100E40007047000088ED00E0FEE70907090E002862
:100E500004DB00F1E02080F80014704700F00F0080
:100E600000F1E02080F8141D704702E008C8121F4E
:100E700008C1002AFAD170477047002001E001C183
:100E8000121F002AFBD17047FFF7AAFBFFF780FF74
:100E9000FFF70CFF00F006F8FFF7F0FE00F01CF87B
:100EA000FEE70000EFF3058068B9EFF3108209490F
:100EB000086812B9EFF311820AB1022803D028B1F1
:100EC0004FF0FF3070476FF0050070470120086059
:100ED000002070476800002010B5EFF3058070B95E
:100EE000EFF310820A49086812B9EFF311820AB1D0
:100EF000022804D0012805D04FF0FF3010BD6FF05C
:100F0000050010BD0220086000F014FE002010BD96
:100F1000680000202DE9FF414FEA01034FF0000572
:100F2000EFF30581039599BBEFF3108111B9EFF34E
:100F3000118119B11F490968022938D040B38026B0
:100F4000182100244AB3176807B13C4697691FB1BE
:100F500039467F1E382F02D21779FF0703D00020B1
:100F600004B0BDE8F081576907B1BE08D2F808C0E7
:100F7000BCF1000F0DD0D5685C2D18D312693AB1C1
:100F800037B18DE806103246214601F06AF9039028
:100F90000DE0D7685FB912694AB903AACDE900121A
:100FA000B2B2214601F030F9012800D00395039830
:100FB000D6E70000680000202DE9F041134C0F46F1
:100FC000054666692068001D00F042FC681C07D1D8
:100FD00037B12168BDE8F0410D48091D00F088BC1B
:100FE00020683544B5424560216805D2A068BDE857
:100FF000F041091D00F064BC6068091D00F060FC50
:10100000206B854200D22563BDE8F08118000020E6
:10101000800500202DE9F041054600F075FC2D4CBF
:101020002069401C206120682B4F10B1E06930B36B
:101030002BE025602069012827D1002606EB8600D9
:1010400007EB800000F02EFC761C382EF6D32348E8
:1010500000F028FC2148143000F024FC1F48283000
:1010600000F020FC1D483C3000F01CFC1B485030B8
:1010700000F018FC194860601430A06005E020689A
:10108000E96AC06A884200D82560E06A401CE062D4
:101090006864E86AA169884200D9A06100EB800019
:1010A00007EB8000291D00F023FC00F04DFCE069F7
:1010B00000280CD02068E96AC06A884207D2084933
:1010C0004FF080500860BFF34F8FBFF36F8FBDE8C4
:1010D000F081000018000020D00000203005002022
:1010E00004ED00E038B500F00FFC104CA068C8B962
:1010F0000F4800F0D7FB0E48143000F0D3FB0C482B
:101100002060143060600A4B00202833009003F107
:10111000500210210A2000F01BFEA06010B105A1B2
:1011200000F090FCBDE8384000F00EBC54000020F8
:1011300094050020546D72510000000030B4026C20
:101140000B46002A0BD0C1681144C1608468A142DB
:1011500001D30168C16030BC1846FFF7D4B830BC79
:1011600070472DE9F041856B174604460026026C56
:1011700082B1C7B1E068FFF7C6F8E168206C091AD0
:10118000E1602268914202D2A168081AE060022F51
:1011900016D017E02068A8B9A06801F005F9064646
:1011A0000020A0600EE06068FFF7ADF8216C606879
:1011B00008446060A168884204D32068606001E050
:1011C00005B16D1E6D1CA5633046BDE8F08110B5FC
:1011D000044690F8590058B101280CD002280FD0CD
:1011E000502080F31188BFF34F8FBFF36F8FFEE75E
:1011F000206B00F0BDFB2046BDE8104000F0B8BBFE
:1012000010BD000010484FF47051420706D0C01DB9
:101210000D4920F00700411AC1F570510B4A002317
:101220000144C2E900030839103A21F007011160B6
:101230004B600B600B1AC0E9001393604FF0004045
:101240005360D06070470000640D00207C000020D7
:10125000144E154CA6F29C474FF08058DFF84C9086
:1012600012E000BF00F050FBF068C568281D00F0D8
:10127000EFFA2069401E2061E068401EE06000F047
:1012800063FB2846FFF7A3FFE0680028EAD138682F
:101290000128F9D9C9F80080BFF34F8FBFF36F8FD2
:1012A000F2E700006C0500201800002004ED00E0CB
:1012B00070B51D46049C51B1C4F80020C4E90F016B
:1012C0000121204600F078FD84F84C5070BD246068
:1012D000F4E700002DE9F05F8846DDE90B94154640
:1012E000834691009A460A9EA522206BFFF71DF8BF
:1012F0006FF00301206B01EB8501084420F0070724
:10130000780707D0502080F31188BFF34F8FBFF3C9
:101310006F8FFEE70025B8F1000F0FD05FF00000DF
:10132000221818F8001082F8341018F8001011B1C3
:10133000401C1028F4D384F8435001E084F8345062
:10134000382E00D33726E662C4E91365201D00F06D
:10135000B4FA04F1180000F0B0FA2461C6F13800C4
:101360006462A061656584F8585052465946384613
:1013700000F058FA2060B9F1000F01D0C9F8004020
:10138000BDE8F09F30B5114900E011460A6882427D
:10139000FBD34B685C18844203D140681844486012
:1013A000084643681C18944209D1084C103C246834
:1013B000A24209D052681A4442600A681268026068
:1013C000814200D0086030BD0460F9E77C00002055
:1013D00070B5002441600B4D0061914206D8D11ACE
:1013E0008269914206D2011D686807E09A4203D2E1
:1013F000994201D3012403E0011D286800F060FA3E
:10140000204670BD5400002010B5044600F07CFA60
:10141000A06B28B15FF0000400F096FA204610BDE2
:101420000124F9E730B589B03C4D6EE004980028FE
:1014300006DADDE90601059A90470498002864DB86
:10144000069C606910B1201D00F002FA03A800F0AC
:10145000D7F8024604980A2857D2DFE800F00505BD
:10146000052D334A05052D3394F8280040F001007E
:1014700084F828000599A069059B01442046FFF7E0
:10148000A7FF68B3216A2046884794F828004007E0
:101490003BD5002000900598A16900234218194609
:1014A000204601F08BF8D8B9502080F31188BFF3A3
:1014B0004F8FBFF36F8FFEE714F8280F20F0010065
:1014C000207022E094F8280040F0010084F8280001
:1014D0000598A06128B1811813462046FFF778FFD0
:1014E00013E0502080F31188BFF34F8FBFF36F8F4D
:1014F000FEE794F82800810703D4204600F038FA6C
:1015000003E020F0010084F82800002204A9A86864
:1015100000F0A4FD002889D109B030BD540000209E
:101520002DE9FC410F46054600F048FB01A800F0FC
:1015300067F80446019818B100F0AEFFBDE8FC81E1
:10154000254EAFB170680068D0B30027291B3A461A
:10155000B06800F08BFA00F09FFF0028EED11F4921
:101560004FF080500860BFF34F8FBFF36F8FE5E7F8
:10157000A542EBD800F090FF30682746C068C468E9
:10158000201D00F065F994F82800410719D5A069DD
:101590002B4641193A462046FFF71AFFA8B1002012
:1015A0000346014600902A46204601F007F860B93C
:1015B000502080F31188BFF34F8FBFF36F8FFEE78A
:1015C00007E020F0010084F82800216A20468847BF
:1015D000B4E70127BAE700005400002004ED00E062
:1015E00006484168096829B14168C968C9684968FD
:1015F000016370474FF0FF31FAE700001800002048
:1016000070B5054600F066FE064E04463069844219
:1016100003D200F009F8012000E0002028602046F5
:10162000346170BD54000020F8B5194D20E0C06849
:10163000C4680668201D00F00BF9216A204688471F
:1016400094F82800400713D5A0693044B04206D969
:1016500024616060211D286800F032F908E0002054
:101660000346014600903246204600F0A7FF38B1FD
:10167000286801680029DAD16968C5E90010F8BD59
:10168000502080F31188BFF34F8FBFF36F8FFEE7B9
:101690005400002008484068401C4FF0500080F380
:1016A000118804D0BFF34F8FBFF36F8FFEE7BFF3F6
:1016B0004F8FBFF36F8FFEE784000020074C206838
:1016C000016841B1C0680021D0F80000FFF728FF91
:1016D000FFF7A8FEF3E701210020F7E75400002000
:1016E0002DE9F041044600F00FF994F9455004F15A
:1016F000240609E0606A48B1304600F095FE08B162
:1017000000F0DEF96D1E6DB2002DF3DC4FF0FF36F8
:1017100084F8456000F018F900F0F6F894F94450A8
:1017200004F1100709E0206948B1384600F07CFE5A
:1017300008B100F0C5F96D1E6DB2002DF3DC84F820
:101740004460BDE8F04100F0FFB800002DE9F04131
:101750000546002700F032FA314E306808B9FFF72D
:1017600051FDF06805424BD1C5B3083568070ED06E
:1017700005F00700C0F108000544680707D05020B5
:1017800080F31188BFF34F8FBFF36F8FFEE72DB348
:101790007068854234D82248103001460C6801E058
:1017A00020460C466168A94202D221680029F7D17F
:1017B00031688C4224D0076821680160606808376E
:1017C000411B10290FD96019420708D0502080F31F
:1017D0001188BFF34F8FBFF36F8FFEE710E04160BA
:1017E0006560FFF7CFFD61687068401A7060B2688D
:1017F000904200D2B060F06801430020C4E90001CB
:1018000000F04AFE780707D0502080F31188BFF31C
:101810004F8FBFF36F8FFEE73846BDE8F0810000C1
:101820006C00002010B5031F4FF080741C601B1F5C
:1018300021F001011960191F044B0B6014390A6073
:10184000091F6FF0020244380A6010BD95160008A7
:10185000D0E9013201699A60D0E901235A604A68EF
:10186000824201D182684A60002202610868401EFB
:101870000860086870470000034B036003F15C00D8
:101880000860802010607047AC060020044B0360A5
:1018900003F15C0008604FF4807010607047000036
:1018A0000809002000F108014FF0FF32C0E90112E1
:1018B000C160016100210160704700210161704732
:1018C00030B50B685A1C02D000F1080202E0026930
:1018D00004E02246546825689D42FAD953684B605B
:1018E00099608A60516008610168491C016030BDDF
:1018F00042684A6093688B609368596091600861A0
:101900000168491C01607047502080F31188BFF3C3
:101910004F8FBFF36F8F0A494868401C4860012809
:101920000CD10848006810F0FF0F07D0502080F35A
:101930001188BFF34F8FBFF36F8FFEE77047000032
:101940008400002004ED00E00849486828B1401EEA
:10195000486001D180F311887047502080F31188CE
:10196000BFF34F8FBFF36F8FFEE7000084000020AE
:1019700070B5002827D0144DA0F108046168E8680C
:10198000014207D1502080F31188BFF34F8FBFF37E
:101990006F8FFEE722683AB1502080F31188BFF3C1
:1019A0004F8FBFF36F8FFEE78143616000F006F950
:1019B00060686968084468602046FFF7E3FCBDE89A
:1019C000704000F069BD70BD6C0000204FF0E02059
:1019D00000210161816105494FF47A720968B1FB08
:1019E000F2F1491E41610721016170471400002096
:1019F00010B5FEF741FC114910280ED300F1E0208C
:101A000090F8F0030A78904207D2502080F31188B2
:101A1000BFF34F8FBFF36F8FFEE7094800688968F7
:101A200000F4E060884207D9502080F31188BFF3AA
:101A30004F8FBFF36F8FFEE710BD000084000020C2
:101A40000CED00E010B5084B002200BF53F8324007
:101A50001CB1521C082AF9D310BD43F8321003EB15
:101A6000C201486010BD00009000002070B515460E
:101A70000E460446FFF748FF94F944100020491C25
:101A800001D184F8440094F94510491C01D184F82F
:101A90004500FFF759FFA06B28B92A46314604F1EB
:101AA000240000F02BF82046BDE87040FFF718BE78
:101AB00002498A6A02604969416070471800002043
:101AC00001490120486270471800002010B50C46FB
:101AD00050B1094909681831FFF7F2FE2046BDE808
:101AE00010400121FFF768BA502080F31188BFF33E
:101AF0004F8FBFF36F8FFEE71800002070B51446BC
:101B00000D4668B10A4909681831FFF7F1FE0CB1BA
:101B10004FF0FF3521462846BDE87040FFF74CBA2C
:101B2000502080F31188BFF34F8FBFF36F8FFEE714
:101B30001800002030B587B00024039405AA04A93A
:101B400003A80494FFF798FEDDE903010094CDE9B2
:101B50000110002315A11748059A00F082FB164DCD
:101B6000002868631FD000F0F9FC012809D0401C50
:101B700019D1502080F31188BFF34F8FBFF36F8FBF
:101B8000FEE7502080F31188BFF34F8FBFF36F8FB4
:101B90004FF0FF3028630120E8616C6107B0BDE8B9
:101BA000304000F045B807B030BD000049444C4516
:101BB0000000000051120008180000200248816B4C
:101BC000491C81637047000018000020164810B5BA
:101BD000816B11B10121416210BD00214162816917
:101BE000124A01E0B9B1491E01EB810352F82330DA
:101BF000002BF7D001EB810302EB830202F1080412
:101C000053685B685360A34201D15B685360DA6834
:101C10000260816110BD502080F31188BFF34F8FA7
:101C2000BFF36F8FFEE7000018000020D0000020F7
:101C30001CB537480168374A914207D1502080F3DC
:101C40001188BFF34F8FBFF36F8FFEE700683149F4
:101C5000491E884207D1502080F31188BFF34F8F6F
:101C6000BFF36F8FFEE72C4908780190FF200870C2
:101C700008788DF800009DF800009DF8002000F025
:101C8000F000904207D0502080F31188BFF34F8FAF
:101C9000BFF36F8FFEE79DF80000204B00F050006F
:101CA00018700720986005E09DF8002052008DF81C
:101CB0000020401E9DF800201206F5D498600328ED
:101CC00007D0502080F31188BFF34F8FBFF36F8F81
:101CD000FEE74FF440709860019808700C4820307F
:101CE000016841F470010160016841F070410160D8
:101CF000FFF76CFE00205860FEF786FA084801687E
:101D000041F040410160FEF76BFA00201CBD00006D
:101D100000ED00E071C20F4100E400E0840000200B
:101D200034EF00E010B5502080F31188BFF34F8FDF
:101D3000BFF36F8F00F0D4FA18B104494FF0805010
:101D40000860002080F3118810BD000004ED00E061
:101D500038B5049D18B153B1CAB181B120E050200B
:101D600080F31188BFF34F8FBFF36F8FFEE75020D2
:101D700080F31188BFF34F8FBFF36F8FFEE75020C2
:101D800080F31188BFF34F8FBFF36F8FFEE739B138
:101D9000502080F31188BFF34F8FBFF36F8FFEE7A2
:101DA00050241C46012384F846302B460094FFF74C
:101DB0007FFA204638BD000070B50D46040025D0DE
:101DC000FFF7A2FDD4E90F20216802FB0011A160FA
:101DD0000021A163216861600A46D4E90F01401E19
:101DE00000FB0121E16021464FF0FF3001F8440F74
:101DF000487004F110008DB1FFF754FD04F1240088
:101E0000FFF750FDFFF7A0FD012070BD502080F3CB
:101E10001188BFF34F8FBFF36F8FFEE72169002951
:101E2000F0D000F001FB0028ECD004494FF08050C6
:101E30000860BFF34F8FBFF36F8FE3E704ED00E05F
:101E40002DE9FF4782B01D468A464FF00008040086
:101E500003D0BAF1000F08D011E0502080F31188B0
:101E6000BFF34F8FBFF36F8FFEE7206C38B1502068
:101E700080F31188BFF34F8FBFF36F8FFEE7022D02
:101E80000AD1E06B012807D0502080F31188BFF3FE
:101E90004F8FBFF36F8FFEE700F00EFA3F4F4FF00A
:101EA00000094FF0805648B9049838B1502080F3AB
:101EB0001188BFF34F8FBFF36F8FFEE7FFF724FD4D
:101EC000A06BE16B884207D3022D05D00498D0B1F6
:101ED000B8F1000F1AD01EE02A4651462046FFF7FF
:101EE00040F9616A19B104F1240000F09DFA20B1B3
:101EF0003E60BFF34F8FBFF36F8FFFF725FD0120CB
:101F000006B0BDE8F087FFF71FFD22E06846FFF747
:101F1000CFFD4FF00108FFF717FDFFF74FFEFFF76A
:101F2000F3FC94F94400401C01D184F8449094F9E6
:101F30004500401C01D184F84590FFF705FD04A938
:101F4000684600F027F930B12046FFF7C9FB00F0E2
:101F5000A3FA0020D4E7FFF7D7FCA06BE16B88421F
:101F600013D1FFF7F1FC04F110000499FFF7AEFD67
:101F70002046FFF7B5FB00F08FFA00289ED13E60A7
:101F8000BFF34F8FBFF36F8F98E7FFF7DDFC20465D
:101F9000FFF7A6FB00F080FA90E7000004ED00E0F8
:101FA0002DE9F0471F4690468946040003D0B9F159
:101FB000000F08D011E0502080F31188BFF34F8F3D
:101FC000BFF36F8FFEE7206C38B1502080F311888B
:101FD000BFF34F8FBFF36F8FFEE7022F0AD1E06B85
:101FE000012807D0502080F31188BFF34F8FBFF333
:101FF0006F8FFEE7FFF7FCFC5020EFF3118680F3B4
:102000001188BFF34F8FBFF36F8FA06BE16B8842D6
:1020100006D3022F04D0002086F31188BDE8F08794
:1020200094F945503A4649462046FFF79AF8681C0D
:1020300004D06D1C84F845500120EDE7606A00284B
:10204000FAD004F1240000F0EFF90028F4D0B8F140
:10205000000FF1D00121C8F80010EDE72DE9F74796
:10206000002683B08A46040003D0BAF1000F08D0DE
:1020700011E0502080F31188BFF34F8FBFF36F8FB3
:10208000FEE7206C38B1502080F31188BFF34F8FEA
:10209000BFF36F8FFEE700F00FF9DFF8F4804FF029
:1020A00000094FF0805748B9059838B1502080F3A7
:1020B0001188BFF34F8FBFF36F8FFEE7FFF724FC4C
:1020C000A56BC5B151462046FFF738F86D1EA563D4
:1020D000206950B104F1100000F0A6F928B1C8F849
:1020E0000070BFF34F8FBFF36F8FFFF72DFC012000
:1020F00006B0BDE8F087059808B11EB106E0FFF70D
:1021000023FC27E06846FFF7D3FC0126FFF71CFC01
:10211000FFF754FDFFF7F8FB94F94400401C01D190
:1021200084F8449094F94500401C01D184F845900E
:10213000FFF70AFC05A9684600F02CF800282046A5
:102140000AD0FFF7CDFA00F0A7F92046FFF75CF9B7
:102150000028B3D00020CBE7FFF756F990B104F187
:1021600024000599FFF7B2FC2046FFF7B9FA00F00A
:1021700093F90028A2D1C8F80070BFF34F8FBFF3C6
:102180006F8F9BE72046FFF7ABFA00F085F995E7E4
:1021900004ED00E02DE9F0410C46050011D0C4B17A
:1021A000FFF7B2FB174B5A696E682068911B471CFA
:1021B00017D02F689B6A9F4219D0964217D80124E6
:1021C00010E0502080F31188BFF34F8FBFF36F8F63
:1021D000FEE7502080F31188BFF34F8FBFF36F8F5E
:1021E000FEE70024FFF7B0FB2046BDE8F0818842FF
:1021F00005D9401A20602846FFF75AFCF1E7002075
:102200002060DCE7180000202DE9FF5F8346DDE950
:102210000E87994616468A469000FFF797FA050002
:102220001CD05C20FFF792FA040014D00020256334
:1022300084F85900CDE90240CDE900874B4632468B
:1022400051465846FFF746F82046FEF7E3FE0120C8
:1022500004B0BDE8F09F2846FFF78AFB4FF0FF303F
:10226000F6E7F0B585B0DDE90B640A9DA6B1DCB1F7
:102270005C2700972663022684F85960002604AF85
:10228000CDE90246CDE90057FFF724F82046FEF7D6
:10229000C1FE049805B0F0BD502080F31188BFF353
:1022A0004F8FBFF36F8FFEE7502080F31188BFF38D
:1022B0004F8FBFF36F8FFEE70548C16919B1806B7F
:1022C00018B10020704701207047022070470000BD
:1022D00018000020014840697047000018000020E5
:1022E0002DE9F0412E4C0027A06B40B1206A401C24
:1022F0002062606A00B101273846BDE8F081666956
:10230000761C666113D16068006838B1502080F394
:102310001188BFF34F8FBFF36F8FFEE76068A1682E
:102320006160A060A06A401CA062FFF759F9206BB1
:10233000DFF87080864209D36068006880B1606809
:10234000C068C568686886420DD220632068C06A8C
:1023500000EB800158F821000128CAD90127C8E7FD
:102360004FF0FF30F1E7281DFFF772FAA86A18B1A5
:1023700005F11800FFF76CFAE86AA169884200D9F4
:10238000A06100EB800108EB8100291DFFF7B0FA86
:10239000E86A2168C96A8842CED30127CCE70000E9
:1023A00018000020D000002070B504004FF000019C
:1023B00033D01B4D2868844207D0502080F3118809
:1023C000BFF34F8FBFF36F8FFEE7206D38B1401E14
:1023D0002065E36CE26A9A421FD040B11DE05020B4
:1023E00080F31188BFF34F8FBFF36F8FFEE7201D7F
:1023F000FFF72EFAE06CE062C0F13800A061E06AFD
:10240000A969884200D9A861064900EB800001EB68
:102410008000211DFFF76CFA0121084670BD000005
:1024200018000020D000002070B5C068C46854B106
:1024300004F118000646FFF70BFA144DA86B50B1D3
:102440003146134815E0502080F31188BFF34F8FB9
:10245000BFF36F8FFEE7201DFFF7FAF9E06AA96965
:10246000884200D9A8610B4900EB800001EB800095
:10247000211DFFF73DFAE06A2968C96A884202D93E
:102480000120686270BD002070BD000018000020AF
:1024900058050020D00000202DE9F0472C4D0024E5
:1024A0002746A86B38B1FFF72FFAA86B401EA86328
:1024B000A86B40B146E0502080F31188BFF34F8FE6
:1024C000BFF36F8FFEE72969224E0120D1B3A6F535
:1024D000916980463068E0B1F068C46804F1180082
:1024E000FFF7B6F9201DFFF7B3F9E06AA969884242
:1024F00000D9A86100EB800109EB8100211DFFF7E5
:10250000F7F9E06A2968C96A8842E3D3C5F82480EC
:10251000E0E70CB1FFF764F82C6A4CB14FEA08060B
:10252000FFF7DEFE00B16E62641EF9D10020286262
:10253000686A38B10849012738070860BFF34F8F30
:10254000BFF36F8FFFF700FA3846BDE8F087000051
:10255000180000205805002004ED00E010B586B0FA
:10256000FEF7C0FD114CA068B8B1002003900490A4
:1025700005AA04A903A8FFF789F9DDE903210220D0
:102580008DE8070000230AA10B48059AFFF769FEB2
:10259000E06010B106B0012010BD502080F311881A
:1025A000BFF34F8FBFF36F8FFEE700005400002092
:1025B000546D722053766300BD1600082DE9FF416B
:1025C0001E46134602000A9D4FF0000016D0144C20
:1025D000A768002F0FD0CDE900130292062917DA61
:1025E000FFF76AFE02284FF000030FD00022694671
:1025F000A068FFF725FC04B0BDE8F081502080F30F
:102600001188BFF34F8FBFF36F8FFEE72A46EEE7C7
:102610000023324669463846FFF7C2FCEBE700006C
:102620005400002088260008000000000000000080
:102630000000000000000000000200001800000080
:1026400000000000000000007C26000800000000E0
:102650000000000000000000000000000002000078
:102660001800000000000000000000000000000052
:102670000000000001020304060708097365636F88
:102680006E645461736B000064656661756C7454AC
:1026900061736B00B4260008000000209000000069
:1026A0006A0E00084427000890000020D84C000063
:1026B0007A0E000800000000000000000100000089
:1026C00010000000000000000024F40000000000E2
:1026D00000000000000000000000000000000000FA
:1026E00000000000000000000000000000000000EA
:1026F00000000000000000000000000000000000DA
:1027000000000000000000000000000000000000C9
:1027100000000000000000000000000000000000B9
:1027200000000000000000000000000000000000A9
:10273000000000000000000000000000AAAAAAAAF1
:042740000000000095
:04000005080001AD41
:00000001FF
